:020000040800F2
:10000000D0060020DD1600082D0500082F05000889
:1000100033050008370500083B0500080000000014
:100020000000000000000000000000003F05000884
:1000300041050008000000004305000845050008D0
:10004000F7160008F7160008F7160008F71600085C
:10005000F7160008F7160008F7160008F71600084C
:10006000F7160008F7160008F7160008F71600083C
:10007000F7160008F7160008F7160008F71600082C
:10008000F7160008F7160008F7160008F71600081C
:10009000F7160008F7160008F7160008F71600080C
:1000A000F7160008F7160008F7160008F7160008FC
:1000B000F7160008F7160008F7160008F7160008EC
:1000C000F7160008F7160008F7160008F7160008DC
:1000D000F71600089715000823160008F115000808
:1000E000F7160008F7160008F7160008F7160008BC
:1000F000F7160008F7160008F7160008F7160008AC
:10010000F7160008F7160008F7160008F71600089B
:10011000F7160008F7160008F7160008F71600088B
:10012000F7160008F7160008F7160008F71600087B
:10013000F7160008F7160008F7160008F71600086B
:10014000F7160008F7160008F7160008F71600085B
:10015000F7160008F7160008F7160008F71600084B
:10016000F7160008F7160008F7160008F71600083B
:10017000F7160008F7160008F7160008F71600082B
:10018000F7160008F716000800F002F800F045F82E
:100190000AA090E8000C82448344AAF10107DA45E2
:1001A00001D100F03AF8AFF2090EBAE80F0013F0EF
:1001B000010F18BFFB1A43F0010318470833000072
:1001C00028330000103A24BF78C878C1FAD8520703
:1001D00024BF30C830C144BF04680C6070470000C1
:1001E0000023002400250026103A28BF78C1FBD840
:1001F000520728BF30C148BF0B6070471FB503F0DE
:1002000056F902F03BFB04000020002102F0E0FB65
:10021000401C60601FBD10B510BD02F00AFB114606
:10022000FFF7ECFF00F0CCF802F03AFB03B4FFF765
:10023000F2FF03BC01F0A8F810B5AF48006807282A
:1002400049D2DFE800F04804101C28343E00AB48D7
:10025000006800F0D4FC4FF4FA7001F075F8FF204C
:10026000A54908603AE0A548006800F0B8FC4FF4E2
:10027000FA7001F069F8FF209F4908602EE09F485E
:10028000006800F0CCFC4FF4FA7001F05DF8FF203C
:100290009949086022E09948006800F0D0FC4FF4CA
:1002A000FA7001F051F8FF209349086016E000F061
:1002B000B8FF4FF4FA7001F047F8FF208E4908604C
:1002C0000CE000F0C8FF4FF4FA7001F03DF8FF2099
:1002D0008949086002E000F0C2FC00BF00BF10BD09
:1002E00010B587480068362836D008DCA0F1300009
:1002F000062863D2DFE800F00B0E13181D226138C8
:1003000006285BD2DFE800F0404346494C4F00F03E
:10031000A6FC53E07948006800F071FC4EE0774895
:10032000006800F05CFC49E07448006800F077FC6D
:1003300044E07248006800F082FC3FE06F480068CB
:1003400022306E49086008460068B0F5006F02DD93
:100350004FF40060086031E068480068223867495F
:10036000086008460068B0F5806F03DA4FF48060DB
:10037000086008E061480068B0F5577F03DA4FF481
:1003800057705E49086019E000F059FD16E000F072
:1003900052FE13E000F079FC10E000F090FE0DE05A
:1003A00000F073FC0AE0002402E000F0C3FE641CCD
:1003B000022CFADB00205349086000BF00BF10BDCB
:1003C00000240025002600270FF23C184FF4A060FF
:1003D00001F0A4F9A82000F055FF4FF4165000F0EA
:1003E000E5FF4FF4E13001F033F84FF4165001F01F
:1003F00080F800F0B1F900F011FB9FED440A00F025
:1004000013FB00F042FC76E03FA1414802F0CEF839
:10041000002862D041463E4802F0A0F806463DA1C1
:10042000002002F09BF80746002E56D0002F54D033
:10043000304602F086F80446384602F082F8054657
:100440000020307038701421384602F08DF804B95D
:10045000F5B314F1230F05DB2848006800F0EFFB2B
:1004600000F0FDFB14F1250F05DC2448006800F0C6
:10047000D6FB00F0F4FB284885420DDB26481E30F1
:10048000854209DC14F1230F06DC14F1250F03DB90
:1004900000F0E5FB00F0D7FD1F4885420BDA14F1B0
:1004A000230F08DC14F1250F05DB1448006800F069
:1004B000A6FB00F0D4FB18481E3085420BDD14F17A
:1004C000230F08DC14F1250F05DB0C48006800E061
:1004D00001E000F084FB0024002510A10C4802F08C
:1004E00065F808B900F0BBFBFFF7FAFEFFF7A4FEC2
:1004F0000F2000F029FF87E72800002000000020DF
:1005000024000020180000202C00000000004842B9
:100510005800002000000000F6FAFFFF66696E64D4
:100520005F6572726F720D0A00000000704700BFB5
:10053000FEE700BFFEE700BFFEE700BFFEE7704733
:1005400070477047704700000CB500200190009084
:100550007648006840F480307449086000BF7348F2
:10056000006800F4003000900198401C0190009851
:1005700018B90198B0F5A04FF1D16C48006800F4AB
:10058000003010B10120009001E0002000900098A0
:10059000012846D165484030006840F080506349EA
:1005A000403108606248006840F44040604908609B
:1005B0005E48083000685D490831086008460068F8
:1005C00040F4004008600846006840F4A05008600D
:1005D0005848091F0860081F006840F08070091F14
:1005E000086000BF5148006800F000700028F9D092
:1005F00040F20570504908604C480830006820F00F
:1006000003004A49083108600846006840F00200CB
:10061000086000BF45480830006800F00C0008285A
:10062000F8D10CBD10B54548006840F4700043494E
:1006300008603E48006840F001003C490860002026
:100640003A4908310860394800683D49084037494F
:1006500008603C48091D0860081F006820F48020DD
:10066000091F0860002031490C310860FFF76CFF5A
:100670004FF0006031498039086010BD70B500202E
:100680000022022300240221284D08352D6805F0A0
:100690000C0020B1042806D0082834D107E02A4DE8
:1006A0002A4E356033E02A4D284E35602FE01F4D2D
:1006B0002D1D2D68C5F380541C4D2D1D2D6805F092
:1006C0003F0154B1224DB5FBF1F5184E361D366889
:1006D000C6F3881605FB06F209E01B4DB5FBF1F5E4
:1006E000124E361D3668C6F3881605FB06F20F4D0E
:1006F0002D1D2D68C5F301456D1C6B00B2FBF3F594
:10070000124E356003E0104D104E356000BF00BF43
:10071000064D08352D68C5F303150E4E705D0B4D63
:100720002D68C540094E356070BD0000003802409C
:100730000070004008544007003C024088ED00E093
:10074000FFFFF6FE103000240024F4000400002017
:1007500000127A00080000201CB50121022001F0DF
:1007600071FB4FF44070009001208DF804000020D0
:100770008DF8060003208DF8050001208DF8070094
:100780006946894801F0C0F8012088490860884915
:10079000C1F8A4021CBD10B58348006820F44020B5
:1007A000814908600846006840F480200860012004
:1007B0007E49091D08607E49C1F8A002042000F0AE
:1007C0007BFD00207949091D0860042000F074FDBC
:1007D00000207749C1F8A00210BD10B5724800682A
:1007E00020F44020704908600846006840F48020EA
:1007F000086000206D4908606D49C1F8A40204201A
:1008000000F05AFD0120694908606949C1F8A40255
:10081000042000F051FD10BD10B5002462480068AE
:1008200020F4402060490860084600680860012004
:100830005E49091D086000F03FFD01205C49C1F8D8
:10084000A00200F039FD07E0601CC4B2FA2C03DD01
:10085000FFF7C3FF012010BD54487C380068002812
:10086000F2D15249086000BFF5E710B500204F49AA
:1008700008604D48006820F440204B490860084655
:10088000006840F48020086000204949C1F8A402B3
:10089000022000F011FD012044490860022000F010
:1008A0000BFD00204249C1F8A00210BD10B5002088
:1008B0003E4908603C48006820F440203A490860FE
:1008C0000846006840F48020086001203849C1F8DB
:1008D000A402022000F0F0FC01203449086002204C
:1008E00000F0EAFC00203249C1F8A00210BD70B54A
:1008F00004462D48006820F440202B490860084633
:10090000006840F480200860002028490860002525
:1009100017E0E0092549091D08606006040E022061
:1009200000F0CAFC01202249C1F8A002022000F018
:10093000C3FC00201D490860022000F0BDFC681CBB
:10094000C5B2082DE5DB70BD70B50546002416481C
:10095000006820F4402014490860084600680860D8
:10096000002616E0002011490860022000F0A4FCD7
:1009700001200F49C1F8A0026006040E0B487C3824
:10098000006808B1601CC4B2012000F095FC701C26
:10099000C6B2082EE6DB15B9FFF788FF01E0FFF7C6
:1009A00064FF204670BD000000040240A082404267
:1009B0000080404270B505460C46FFF7ECFE8220F1
:1009C000FFF795FFFFF728FF2846FFF790FFFFF797
:1009D00023FF2046FFF78BFFFFF71EFFFFF7FDFE0B
:1009E00070BD70B50446FFF7D6FE8220FFF77FFF8B
:1009F000FFF712FF2046FFF77AFFFFF70DFFFFF723
:100A0000CAFE8320FFF773FFFFF706FF0020FFF702
:100A10009BFF0546FFF7E1FE284670BD10B500219B
:100A20000846FFF7C7FF10BD70B52DED088BB0EE7F
:100A3000409A19EE100A02F0C9FC41EC1B0B9FED25
:100A4000450B53EC102B02F097FA41EC1A0B01F016
:100A5000D5FF09EE100A9FED410BB0EE408AF0EE93
:100A6000608A9FED400B53EC102B51EC180B02F0F9
:100A7000ABF841EC180B19EE100A02F0A7FC41ECA0
:100A80001A0B53EC1A2B51EC180B02F09DF841ECA9
:100A9000180B9FED360B53EC102B51EC180B02F09A
:100AA000ABFB41EC180B9FED330B53EC102B51ECCF
:100AB000180B01F0D5FF41EC1B0BB0EE4B0AF0EE2A
:100AC0006B0A01F0F9FEB0EE40AAF0EE60AA51EC1C
:100AD0001A0B02F0D1F9C5B20020FFF782FF0446DD
:100AE00004F07F0040F0100631460020FFF762FF5F
:100AF0002946FE20FFF75EFF21460020FFF75AFF40
:100B0000022000F021FC44F0A1010020FFF752FF79
:100B1000BDEC088B70BD70B504460D461646E9B2B3
:100B2000A200921DD0B2FFF745FFA100C91DC8B2B7
:100B3000C5F30721FFF73EFFF1B2A2000832D0B2A1
:100B4000FFF738FFA1000931C8B2C6F30721FFF74C
:100B500031FF70BD713D0AD7A370ED3F000000006A
:100B600084D77741000000000000B0400000000082
:100B70000000F03F000000000000E03F70B52DEDE8
:100B8000088B04469FEDFE0AB0EE408AB42094FB29
:100B9000F0F0B42194FBF1F201FB12414518284614
:100BA00002F097F941EC1B0B9FEDF60B53EC102B69
:100BB00001F056FF41EC1A0B9FEDF40B53EC102B98
:100BC00002F0DAF941EC190B01F018FF08EE100AF7
:100BD000BDEEC80A10EE100ABDEC088B70BD10B552
:100BE0000446224600210920FFF795FF22460021F6
:100BF0000A20FFF790FF142000F0A6FB10BD10B5EF
:100C00000446224600210820FFF785FF22460021E6
:100C10000B20FFF780FF142000F096FB10BD10B5ED
:100C20000446224600210A20FFF775FF22460021D4
:100C30000820FFF770FF142000F086FB10BD10B5F0
:100C40000446224600210920FFF765FF22460021C5
:100C50000B20FFF760FF142000F076FB10BD10B5ED
:100C6000822200210820FFF756FF8222002109205E
:100C7000FFF751FF822200210A20FFF74CFF82225A
:100C800000210B20FFF747FF10BD10B540F299126D
:100C900000210846FFF73FFFC82000F055FB40F257
:100CA000551200210120FFF736FFC82000F04CFB51
:100CB000EF2200210220FFF72EFFC82000F044FBA6
:100CC00040F26B1200210320FFF725FFC82000F03F
:100CD0003BFB40F2331200210420FFF71CFFC82029
:100CE00000F032FB10BD10B540F25512002108464D
:100CF000FFF711FF0A2000F027FB40F26B120021E2
:100D00000846FFF708FF0A2000F01EFB4FF4C172EF
:100D100000210846FFF7FFFE0A2000F015FB40F215
:100D2000991200210846FFF7F6FEC82000F00CFBE0
:100D300040F2BB1200210120FFF7EDFE0A2000F077
:100D400003FB40F2A51200210120FFF7E4FE0A2078
:100D500000F0FAFA40F28D1200210120FFF7DBFECD
:100D60000A2000F0F1FA40F2771200210120FFF78B
:100D7000D2FE0A2000F0E8FA4FF4B0720021012000
:100D8000FFF7C9FE0A2000F0DFFA40F255120021F9
:100D90000120FFF7C0FEC82000F0D6FA892200210A
:100DA0000220FFF7B8FE0A2000F0CEFA94220021BC
:100DB0000220FFF7B0FE0A2000F0C6FA9F220021B1
:100DC0000220FFF7A8FE0A2000F0BEFAAB220021A5
:100DD0000220FFF7A0FE0A2000F0B6FAB722002199
:100DE0000220FFF798FE0A2000F0AEFAC22200218E
:100DF0000220FFF790FE0A2000F0A6FACD22002183
:100E00000220FFF788FE0A2000F09EFAD822002177
:100E10000220FFF780FE0A2000F096FAE32200216C
:100E20000220FFF778FE0A2000F08EFAEF22002160
:100E30000220FFF770FEC82000F086FA10BD10B542
:100E4000D82200210320FFF766FE10BD10B540F246
:100E5000991200210846FFF75EFE322000F074FA76
:100E600040F28D1200210846FFF755FE322000F0B7
:100E70006BFA4FF4C17200210846FFF74CFE322096
:100E800000F062FA40F2771200210846FFF743FEB5
:100E9000322000F059FA40F26B1200210846FFF7A9
:100EA0003AFE322000F050FA4FF4B07200210846AA
:100EB000FFF731FE322000F047FA40F255120021D0
:100EC0000846FFF728FE4FF4967000F03DFA40F216
:100ED000551200210120FFF71EFE322000F034FAE7
:100EE0004FF4B07200210120FFF715FE322000F010
:100EF0002BFA40F26B1200210120FFF70CFE32208A
:100F000000F022FA40F2771200210120FFF703FEE1
:100F1000322000F019FA4FF4C17200210120FFF7CE
:100F2000FAFD322000F010FA40F28D12002101206B
:100F3000FFF7F1FD322000F007FA40F2991200218C
:100F40000120FFF7E8FD322000F0FEF940F2A51283
:100F500000210120FFF7DFFD322000F0F5F94FF40A
:100F6000D87200210120FFF7D6FD322000F0ECF905
:100F700040F2BB1200210120FFF7CDFD0AE0000086
:100F800000000000000000000000D03F9A999999ED
:100F9000999979404FF4967000F0D6F9EF2200212C
:100FA0000220FFF7B8FD322000F0CEF9E322002145
:100FB0000220FFF7B0FD322000F0C6F9D822002150
:100FC0000220FFF7A8FD322000F0BEF9CD2200215B
:100FD0000220FFF7A0FD322000F0B6F9C222002166
:100FE0000220FFF798FD322000F0AEF9B722002171
:100FF0000220FFF790FD322000F0A6F9AB2200217D
:101000000220FFF788FD322000F09EF99F22002188
:101010000220FFF780FD322000F096F99422002193
:101020000220FFF778FD322000F08EF94FF4967021
:1010300000F08AF910BD10B540F28D120021032096
:10104000FFF769FD10BD10B5FFF7F9FE4FF4FA7018
:1010500000F07AF9FFF7FAFE4FF4FA7000F074F935
:10106000FFF7E9FF4FF4FA7000F06EF9FFF73BFE6F
:10107000FFF70BFE4FF4FA7000F066F940F27712BA
:1010800000210420FFF747FDFFF7D5FF4FF47A70EA
:1010900000F05AF9FFF7DAFE4FF4FA7000F054F955
:1010A000FFF7CDFE4FF4FA7000F04EF9FFF71BFE8C
:1010B000FFF7EBFD4FF4FA7000F046F910BD10B5E4
:1010C00040F2551200210846FFF725FD4FF49670B7
:1010D00000F03AF940F2BB1200210120FFF71BFD9E
:1010E0004FF4967000F030F9892200210220FFF7BA
:1010F00012FD4FF4967000F027F910BD10B54FF4B3
:10110000E97200210846FFF706FD642000F01CF993
:1011100040F2551200210120FFF7FDFC642000F091
:1011200013F9892200210220FFF7F5FC642000F06A
:101130000BF910BD10B5FFF782FE4FF4FA7000F006
:1011400003F9FFF7BCFF4FF4FA7000F0FDF8FFF76A
:1011500072FF4FF4FA7000F0F7F8FFF796FD4FF4C6
:10116000FA7000F0F1F840F2771200210420FFF746
:10117000D2FC4FF47A7000F0E7F84148006830B9CB
:10118000FFF79DFF4FF4FA7000F0DEF809E03C48ED
:101190000068012805D1FFF7B1FF4FF4FA7000F0A5
:1011A000D3F8FFF74CFE4FF4FA7000F0CDF8FFF7DC
:1011B0006CFD4FF4FA7000F0C7F831480068401C2D
:1011C0002F49086010BD10B5FFF739FE4FF4FA70D3
:1011D00000F0BAF8FFF773FF4FF4FA7000F0B4F8BC
:1011E000FFF729FF4FF4FA7000F0AEF8FFF74DFD5E
:1011F0004FF4FA7000F0A8F810BD10B5FFF75FFFCC
:101200004FF4FA7000F0A0F8FFF719FE4FF4FA70EF
:1012100000F09AF8FFF739FD4FF4FA7000F094F8F7
:1012200010BD10B5FFF70BFE4FF4FA7000F08CF80C
:10123000FFF745FF4FF4FA7000F086F8FFF7FBFE6A
:101240004FF4FA7000F080F8FFF71FFD4FF4FA70CA
:1012500000F07AF810BD10B5FFF731FF4FF4FA70C7
:1012600000F072F8FFF7EBFD4FF4FA7000F06CF845
:10127000FFF70BFD4FF4FA7000F066F810BD0000A8
:101280001800002010B504466FF0040000F098FA32
:10129000E11704EB5171C1F3C701394A11701046CF
:1012A000007800EB4001C1EBC0104FF6FF7101EA7E
:1012B000C0003449088010BD0146314A12784A43C3
:1012C0004FF0E0235A6100229A611A46126942F0F7
:1012D00001021A6100BF4FF0E022106900F0010224
:1012E0001AB100F48032002AF5D04FF0E0221269E2
:1012F00022F001024FF0E0231A6100229A61704748
:101300000146204A12884A434FF0E0235A610022E6
:101310009A611A46126942F001021A6100BF4FF049
:10132000E022106900F001021AB100F48032002AB4
:10133000F5D04FF0E022126922F001024FF0E023D5
:101340001A6100229A61704770B504464FF4077025
:1013500094FBF0F0C6B24FF4077094FBF0F100FB81
:10136000114085B205E04FF40770FFF7C9FF701E0A
:10137000C6B2002EF7D115B12846FFF7C1FF70BDE8
:101380001C0000201E00002000BF704770B50446FE
:101390000D46A1B2C64800F0C3FF00BF8021C4487B
:1013A00001F06EF80028F9D0204670BD10B588B065
:1013B00004460121084600F045FD0121102000F0FF
:1013C0009BFD07220921BB4800F029FB07220A21C7
:1013D000B84800F024FB4FF4C060069002208DF85E
:1013E0001C008DF81D0000208DF81E0001208DF8D6
:1013F0001F0006A9AF4800F087FA02940020ADF85C
:101400000C00ADF80E00ADF81000ADF814000C2083
:10141000ADF8120002A9A64800F0CFFE0121A448B1
:1014200000F053FF012240F22551A14801F003F8DA
:1014300025208DF8040003208DF805008DF80600A6
:1014400001208DF8070001A800F06DF908B010BD6B
:1014500010B588B004460121084600F0F3FC0121D4
:10146000480400F038FD07220221924800F0D7FA24
:10147000072203218F4800F0D2FA0C2006900220A8
:101480008DF81C008DF81D0000208DF81E00012035
:101490008DF81F0006A9874800F036FA0294002054
:1014A000ADF80C00ADF80E00ADF81000ADF814006A
:1014B0000C20ADF8120002A97F4800F07EFE012149
:1014C0007D4800F002FF012240F225517A4800F0E9
:1014D000B2FF26208DF8040003208DF805008DF85A
:1014E000060001208DF8070001A800F01CF908B0E3
:1014F00010BD10B588B004460121022000F0A2FC06
:101500000121880400F0E7FC07220A216B4800F063
:1015100086FA07220B21694800F081FA4FF44060F7
:10152000069002208DF81C008DF81D0000208DF81B
:101530001E0001208DF81F0006A9604800F0E4F9A4
:1015400002940020ADF80C00ADF80E00ADF81000CC
:10155000ADF814000C20ADF8120002A9584800F0B4
:101560002CFE0121564800F0B0FE012240F2255128
:10157000534800F060FF27208DF8040003208DF809
:1015800005008DF8060001208DF8070001A800F085
:10159000CAF808B010BD10B540F22551444800F01B
:1015A00085FF48B140F22551414800F0BAFF40485C
:1015B00000F0BAFE4349086000BF80213C4800F0BB
:1015C0005FFF0028F9D010BD10B504460BE014F8F9
:1015D000011B3B4800F0A4FE00BF8021384800F00A
:1015E0004FFF0028F9D014B120780028EFD110BDAA
:1015F00010B540F22551324800F058FF48B140F292
:1016000025512F4800F08DFF2D4800F08DFE2E490A
:10161000086000BF8021264800F032FF0028F9D082
:1016200010BD10B540F22551234800F03FFF0028BF
:101630003CD040F225511E4800F073FF1E4800F0D8
:1016400073FEC1B2214802780078401C1F4B18700D
:101650001F48815418460078801E1D49085C0D28DB
:1016600024D118460078401E085C0A281ED10020AC
:101670001849087011E0164816490978405C164967
:10168000144A1278885400211148124A1278815461
:1016900010480078401C0F4908700E4800780B492C
:1016A00009788842E7DB00200849087010BD000077
:1016B00000100140000002400044004000040240CD
:1016C00000480040280000202400002020000020C6
:1016D00044000020210000205800002009488047D5
:1016E00009480047FEE7FEE7FEE7FEE7FEE7FEE704
:1016F000FEE7FEE7FEE7FEE704480549054A064B1C
:10170000704700002506000889010008D00000206D
:10171000D0060020D0020020D00200203249014330
:10172000324A1160704770B5002100230F22C4783F
:101730001CB32E4C246804F4E064C4F5E064C4F3E4
:101740000721C1F10404E3B20A4144789C40E1B2AC
:101750008478144021430C07210E254C05786155EF
:10176000047804F01F050124AC4005786D11AD002C
:1017700005F1E025C5F8004109E0047804F01F05F3
:101780000124AC401B4D0678761145F8264070BD0B
:10179000194A0A400243154B1B1F1A60704739B1A2
:1017A000124A121D12680243104B1B1D1A6006E0FC
:1017B0000E4A121D126882430C4B1B1D1A607047A3
:1017C000042808D14FF0E021096941F004014FF0ED
:1017D000E022116107E04FF0E021096921F00401E6
:1017E0004FF0E022116170470000FA050CED00E0B7
:1017F00000E400E080E100E080FFFF1F10B5044638
:101800009848844208D10121084600F086FB002157
:10181000012000F082FB76E09348844208D1012148
:10182000022000F07AFB0021022000F076FB6AE043
:101830008E48844208D10121042000F06EFB002173
:10184000042000F06AFB5EE08948844208D101214F
:10185000082000F062FB0021082000F05EFB52E04F
:101860008448844208D10121102000F056FB002159
:10187000102000F052FB46E07F48844208D101214D
:10188000202000F04AFB0021202000F046FB3AE037
:101890007A48844208D10121402000F03EFB00211B
:1018A000402000F03AFB2EE07548844208D1012127
:1018B000802000F032FB0021802000F02EFB22E08F
:1018C0007048844208D10121801500F026FB0021D8
:1018D000A01500F022FB16E06B48844208D10121DC
:1018E000401500F01AFB0021601500F016FB0AE01D
:1018F0006648844207D10121001500F00EFB00214B
:10190000201500F00AFB10BDF0B50A4600210023A7
:10191000002400BF3DE0012505FA01F3156805EA42
:1019200003049C4234D105684F000326BE40B543F2
:10193000056015794E00B540066835430560157998
:10194000012D02D01579022D16D185684F0003268E
:10195000BE40B543856055794E00B5408668354335
:101960008560456801268E40B54345604568967997
:101970008E40B6B235434560C5684F000326BE4071
:10198000B543C560D5794E00B540C6683543C560DE
:10199000491C1029BFD3F0BD4FF6FF710160002133
:1019A000017141718171C171704708B54FF4803286
:1019B0000092009A0A430092009AC261C161009AA3
:1019C000C261C2690092C269009208BD024600204D
:1019D00013690B400BB1012000E000207047014665
:1019E000086980B270470246002053690B400BB172
:1019F000012000E0002070470146486980B270472E
:101A000001837047418370470AB1018300E041833D
:101A100070474161704742694A4042617047F0B582
:101A2000002300244D07ED0E02FA05F3CE1000F15D
:101A3000200555F826504E07F70E0F26BE40B54339
:101A4000CF1000F1200646F82750CE1000F12005F7
:101A500055F8265045EA0304CE1000F1200545F85C
:101A60002640F0BD00000240000402400008024091
:101A7000000C024000100240001402400018024016
:101A8000001C0240002002400024024000280240C6
:101A9000F948006840F00100F74908600020F64965
:101AA00008310860F4480068F4490840F2490860C9
:101AB000F348091D0860F348EF4984310860F04895
:101AC0001038091D0860EC48006820F48020EA49BD
:101AD00008600020E8490C310860E7498C31086053
:101AE00070470021E44A921C11701146087070473B
:101AF00010B501460022002300204A11012A02D11C
:101B0000DD4C236808E0022A03D1DB4C70342368E3
:101B100002E0D94C7434236801F01F020124944080
:101B20001C400CB1012000E0002010BD38B50020A1
:101B300000900024002500BF3120FFF7D9FF0546A3
:101B40000098401C00900098B0F5A04F01D0002DE7
:101B5000F2D03120FFF7CCFF08B1012400E00024CF
:101B6000204638BD01460020C34A106820F0F80026
:101B700040EAC10010607047C34908607047002107
:101B8000BD4A703211701170012802D004280AD1A8
:101B900004E00121B84A7032117005E00521B64A0F
:101BA0007032117000E000BF00BF7047B749086095
:101BB000704770B5049C41EA82150126C6EB5306B6
:101BC00045EA0645054345EA0465AB4E361D3560DA
:101BD00070BDAD4908667047820142EA0172A64BAA
:101BE00084331A607047A8498866704710B583012E
:101BF00043EA016343EA02739F4C8834236010BDBB
:101C0000A14908677047A049C86470470246002090
:101C1000994B0833186820F0EC6042EA010318433E
:101C2000954B08331860704702460020924B0833EA
:101C3000186820F0784042EA010318438E4B0833BD
:101C400018607047014600208B4A0832106820F067
:101C5000030008431060704787480830006800F0B0
:101C60000C00704701460020834A0832106820F0BB
:101C7000F000084310607047014600207E4A083299
:101C8000106820F4E05008431060704701460020BF
:101C9000794A0832106820F4604040EAC1001060C0
:101CA0007047F0B5002100220024022500260223FF
:101CB000714F08373F6807F00C0121B1042905D0A6
:101CC000082937D105E0724F076036E0714F076091
:101CD00033E0694F3F1D3F68C7F38056664F3F1D95
:101CE0003F6807F03F036EB16A4FB7FBF3F7DFF8C9
:101CF00088C10CF1040CDCF800C0CCF3881C07FB95
:101D00000CF40CE0624FB7FBF3F7DFF86CC10CF199
:101D1000040CDCF800C0CCF3881C07FB0CF4564F15
:101D20003F1D3F68C7F301477F1C7D00B4FBF5F7FB
:101D3000076002E0564F076000BF00BF4E4F0837F4
:101D40003F6807F0F0010909534F7A5C0768D740F4
:101D50004760494F08373F6807F4E051890A4E4F02
:101D60007A5C4768D7408760434F08373F6807F47D
:101D70006041490B484F7A5C4768D740C760F0BD67
:101D8000002100F44072B2F5407F0AD13A4A08328D
:101D9000116821F4F811414A02401143364A0832D1
:101DA0001160354A70321268C0F30B031A43324B8C
:101DB00070331A60704735494439086070473349B9
:101DC0004039086070473649086070470146002076
:101DD000294A8C32106820F01F004A1E1043264A00
:101DE0008C321060704701460020234A8C32106804
:101DF00020F4F8504A1E40EA02201F4A8C3210603C
:101E00007047014600201C4A8C32106820F44010B4
:101E100008431060704701460020174A8C32106852
:101E200020F4400008431060704701460020124A29
:101E30008C32106820F44030084310607047194914
:101E40000860704739B10C4A3032126802430A4BBD
:101E500030331A6006E0084A303212688243064B7B
:101E600030331A607047F9B1034A343212680243C2
:101E7000014B34331A601CE000380240FFFFF6EAE1
:101E8000103000240030002000004742800E4742FE
:101E90000024F40000127A0030000020FFFCFF0F45
:101EA0005C014742E01147428F4A126882438E4BE1
:101EB0001A60704739B18C4A121D126802438A4B6E
:101EC0001B1D1A6006E0884A121D12688243864B69
:101ED0001B1D1A60704739B1834A0C3212680243E5
:101EE000814B0C331A6006E07F4A0C321268824341
:101EF0007D4B0C331A60704739B17B4A103212683F
:101F00000243794B10331A6006E0774A10321268A8
:101F10008243754B10331A60704739B1724A243AC4
:101F200012680243704B243B1A6006E06E4A243A62
:101F3000126882436C4B243B1A60704739B16A4A7D
:101F4000203A12680243684B203B1A6006E0664A5A
:101F5000203A12688243644B203B1A60704739B1C3
:101F6000614A1C3A126802435F4B1C3B1A6006E050
:101F70005D4A1C3A126882435B4B1C3B1A607047F7
:101F800039B1594A143A12680243574B143B1A604C
:101F900006E0554A143A12688243534B143B1A60C8
:101FA000704739B1504A103A126802434E4B103B09
:101FB0001A6006E04C4A103A126882434A4B103BC2
:101FC0001A60704739B1484A1C3212680243464BC6
:101FD0001C331A6006E0444A1C3212688243424BAA
:101FE0001C331A60704739B13F4A203212680243ED
:101FF0003D4B20331A6006E03B4A20321268824390
:10200000394B20331A60704739B1374A243212688D
:102010000243354B24331A6006E0334A24321268F7
:102020008243314B24331A60704739B12E4A2C3227
:10203000126802432C4B2C331A6006E02A4A2C32D9
:1020400012688243284B2C331A60704739B1264AF4
:10205000303212680243244B30331A6006E0224AC1
:10206000303212688243204B30331A6070470128A7
:1020700008D11D493C31096841F008011A4A3C3237
:10208000116007E018493C31096821F00801164A3F
:102090003C321160704739B1134A273A1278024333
:1020A000114B273B1A7006E00F4A273A12788243F9
:1020B0000D4B273B1A7070470B484030006840F0CA
:1020C0008070094940310860704701460020064A87
:1020D000283A12680A400AB1012000E00020704747
:1020E00001492639087070473438024010B504465B
:1020F000FA48844208D101211020FFF752FF002145
:102100001020FFF74EFF57E0F548844209D1012126
:102110004804FFF735FF00214FF40030FFF730FF90
:102120004AE0F048844209D101218804FFF728FFE2
:1021300000214FF48020FFF723FF3DE0EA4884426E
:1021400009D10121C804FFF71BFF00214FF4002033
:10215000FFF716FF30E0E548844209D10121080568
:10216000FFF70EFF00214FF48010FFF709FF23E077
:10217000DF48844208D101212020FFF712FF00210F
:102180002020FFF70EFF17E0DA48844209D1012131
:102190008807FFF7F5FE00214FF08040FFF7F0FEC3
:1021A0000AE0D548844207D101214005FFF7E8FE47
:1021B00000216005FFF7E4FE10BD2DE9FF4705464D
:1021C0000E460024A14600BFA046B08900B100BF62
:1021D0002C8A24F44054F08804432C82AC8941F2C8
:1021E0000C608443B08831890843718908430443F3
:1021F000AC81AC8A24F44074B0890443AC82684654
:10220000FFF74FFDB548854202D0B948854202D15B
:10221000DDF80C9001E0DDF80890A88900F400409A
:1022200040B109EBC90000EB091031684900B0FB6F
:10223000F1F707E009EBC90000EB091031688900EC
:10224000B0FBF1F76420B7FBF0F004012009642132
:1022500001FB1078A88900F4004040B1322000EB67
:10226000C800B0FBF1F000F00700044308E03220A2
:1022700000EB08106421B0FBF1F000F00F00044304
:102280002C81BDE8FF874FF4165101600021818049
:10229000C18001810C21418100218181704710B5ED
:1022A00002460020108A20F470600B884C8823437B
:1022B0008C882343CC8823431843108210BD00210F
:1022C000018041808180C180704721B1828942F4C0
:1022D0000052828104E082894DF6FF731A408281A8
:1022E0007047028B02F47F420283028B0A4302830F
:1022F000704721B1828942F40042828103E08289E1
:10230000C2F30E028281704721B1828A42F40062D8
:10231000828204E0828A4FF2FF731A408282704701
:10232000C1F308028280704701468888C0F3080024
:102330007047028A4FF6F0731A400282028A0A43FB
:102340000282704721B1828942F00202828104E058
:1023500082894FF6FD731A408281704782894FF25D
:10236000FF731A40828182890A4382817047028A00
:102370004FF6DF731A400282028A0A4302827047D4
:1023800021B1028A42F48042028204E0028A4BF6C2
:10239000FF731A4002827047818941F001018181F7
:1023A000704721B1828A42F00802828204E0828A68
:1023B0004FF6F7731A4082827047028BD2B20283C3
:1023C000028B42EA01220283704721B1828A42F0E5
:1023D0002002828204E0828A4FF6DF731A408282F2
:1023E000704721B1828A42F01002828204E0828A20
:1023F0004FF6EF731A4082827047828A4FF6FB7362
:102400001A408282828A0A438282704721B1828A7C
:1024100042F00202828204E0828A4FF6FD731A4083
:10242000828270471AB1838A0B43838202E0838AD7
:102430008B4383827047F0B50346002400260025B5
:10244000002040F66A17B94200D100BF1846C1F318
:10245000421401F01F06012707FA06F5012C01D1ED
:102460000C3004E0022C01D1103000E014301AB11D
:1024700007682F43076002E00768AF430760F0BDBD
:1024800002460020B1F5007F00D100BF13880B4049
:102490000BB1012000E00020704701F40072B2F59A
:1024A000007F00D100BFCA430280704770B502466A
:1024B000002400230025002040F66A16B14200D116
:1024C00000BFC1F3421501F01F03012606FA03F312
:1024D000012D13D19689334017E000000010014010
:1024E0000044004000480040004C004000500040C4
:1024F0000014014000780040007C0040022D02D111
:10250000168A334001E0968A33400C12012606FAFF
:1025100004F41688344013B10CB1012000E000200F
:1025200070BD10B50022002340F66A14A14200D10C
:1025300000BF0A1201249440A3B2DC43048010BD02
:10254000704770B5064600F075F8046805463046D9
:102550000A22002100F072F82C6070BD014A00F0E0
:10256000A5B80000400000204FF000020429C0F090
:10257000128010F0030C00F0BD80CCF1040CBCF113
:10258000020F18BF00F8012BA8BF20F8022BA1EB07
:102590000C0100F0AFB85FEAC17C24BF00F8012B4A
:1025A00000F8012B48BF00F8012B70474FF0013CA9
:1025B00050F8042B51F8043B9A4221D1A2EB0C03B2
:1025C000934313EACC1317D150F8042B51F8043B72
:1025D0009A4215D1A2EB0C03934313EACC130BD10F
:1025E00050F8042B51F8043B9A4209D1A2EB0C039A
:1025F000934313EACC13DBD04FF00000704700BFC9
:10260000D01A01BAB1FA81F101F0180122FA01F0F1
:10261000CB40C1F12001DBB2C0B2C01A2CFA01F3E9
:10262000D11A914311EAC311E6D170477047704740
:1026300070477047004870476C0000202DE9F04754
:1026400091460F4680460446002614F8015B2DB1E2
:1026500000F07AF80068405DC007F6D12B2D02D05B
:102660002D2D18D0641E4A463946204600F074F8D5
:1026700027B13968A14201D1C7F800804FF00204A8
:1026800071050BD54042002803DDFFF7D3FF04603E
:10269000A007BDE8F08746F48066E4E70028F8DA92
:1026A000FFF7C8FF04606FF00040F2E72DE9F0414A
:1026B00015460E46040002D12C6804B90BA420462E
:1026C00000F0A9F80444207870B127463146384616
:1026D00000F091F80444207810B1002004F8010BB8
:1026E00038462C60BDE8F0810027F9E700000000C3
:1026F0004FF0000200B5134694469646203922BF9B
:10270000A0E80C50A0E80C50B1F12001BFF4F7AFE5
:10271000090728BFA0E80C5048BF0CC05DF804EBC7
:10272000890028BF40F8042B08BF704748BF20F835
:10273000022B11F0804F18BF00F8012B70470000EA
:10274000004870476C00002010B500F097F8001D9D
:1027500010BD00BF7D0200002DE9F05F82461546E6
:102760008B4600270AF10104B9460078302801D0D1
:102770009DB113E014F8010B0127782803D05828E5
:1027800001D045B10AE00DB1102D07D1002714F892
:10279000010B102502E0082500E00A250026B046BE
:1027A0000EE005FB080005FB06F101271FFA80F883
:1027B00001EB1046B6F5803F00D3B94614F8010B83
:1027C000294600F05FF80028EBDABBF1000F05D0D6
:1027D0000FB1641E00E05446CBF80040B9F1000F81
:1027E00006D0FFF727FF02210160C81EBDE8F09F59
:1027F00048EA0640FAE730B503461D781DB10A469F
:1028000003E0AC4201D1181A30BD12F8014B002C84
:10281000F7D15B1CF1E730B503461D783DB10A46A0
:1028200012F8014B1CB1AC42FAD15B1CF5E7181A47
:1028300030BD7546FFF784FFAE4605006946534636
:1028400020F00700854618B020B5FEF755FFBDE81B
:1028500020404FF000064FF000074FF000084FF007
:10286000000B21F00701AC46ACE8C009ACE8C00998
:10287000ACE8C009ACE8C0098D4670470048704715
:102880008C0000203A2800D2303820F02002412A63
:1028900001D3A2F13700884201D34FF0FF307047D7
:1028A00010B50446AFF300802046BDE81040FDF7A8
:1028B000BDBC0000000000002DE9F0412DED020B31
:1028C0009FED3D0B2DED028B9FED3D8BDDE902541D
:1028D000C4F30A50A0F2FF36142E37DA002E18DAAD
:1028E00053EC102B9DED020B51EC100B00F0B8F8DF
:1028F00053EC182B00F03EFC57D2002CA4BF002450
:10290000254652DA24F00040284318BF2E4C4CD004
:102910001AE02E4820FA06F704EA070028431FD0E1
:1029200053EC102B9DED020B51EC100B00F098F8BE
:1029300053EC182B00F01EFC37D2002C03DA4FF4B6
:102940008010F0400444BC4300252EE0332E07DC09
:10295000A6F114004FF0FF3121FA00F73D4206D1F5
:102960009DED020BBDEC028B02B0BDE8F08153EC93
:10297000102B9DED020B51EC100B00F031FC53ECD1
:10298000182B00F0F7FB10D2002C0DDA142E08BF24
:10299000641C09D0C6F13400012101FA00F028447A
:1029A000A84238BF641C0546BD43CDE902549DEDE5
:1029B000020BD7E7000000009C7500883CE4377EDE
:1029C00000000000000000000000F0BFFFFF0F004B
:1029D00010B500290AD00878002807D005487844A7
:1029E000FFF7E4FD002801D0002010BD0248784424
:1029F00010BD0000060B0000FE0A000021F000429E
:102A0000A2F16052B2F5801F01F0004328BFD2F15D
:102A10007F6C0BD95FEA001C43EAC20242EB5070A4
:102A200018BF704728BF20F001007047B2F5801F23
:102A3000BCBF184670474FEA410C1CF5001F02D27C
:102A4000084600F039BD70B500F040FB0000008979
:102A5000FFF7F6BF4FF00040A0F580007047000080
:102A600010B591EA030F48BF83F0004300F1CC8317
:102A7000841A71EB030C05D2121943EB0C03001BF3
:102A800061EB0C01DFF824E14FEA1154A4EB135C75
:102A90001EEA430F18BF9EEA445F73D023EA0E0379
:102AA000DCF1200E21EA045143F4801332D322FAE0
:102AB0000CFE10EB0E0023FA0CFE41EB0E01CCF1E4
:102AC000200E03FA0EFE10EB0E0051F10001B1F5DD
:102AD000801FCCF1200E32D201EB045112FA0EF21B
:102AE000BDE8104058BF7047401C38BF5FEA420243
:102AF00018BF7047002814BF20F0010041F1000109
:102B00004FEA410313F5001F38BF7047A1F1C041E0
:102B100000F02ABB012A43EB0302ACF1200CDCF1EC
:102B20001F0E32BF4FF0000E23FA0CF310EB030020
:102B300041EB0451B4EB115FD0D0A1EB045101F58E
:102B4000801149085FEA300001EB04510ED350F1C7
:102B5000000038BF12FA0EFE08D1BDE81040C9E7E8
:102B6000401C38BF5FEA4202CAD1C3E7BDE810404B
:102B70004FEA410313F5001F38BF7047A1F1C04170
:102B800000F0F2BA9EEA445F08D011EA5E0FBDE899
:102B9000104004BF01F0004100207047BDE8104024
:102BA00070B500F093FA00BF64FBBE3E0000E0FF8A
:102BB000491058BFC1F140415B1058BFC3F14043B9
:102BC0008B42EFF3008070472DE9C04130B4DFF84D
:102BD000A0C23CEA111418BF3CEA131400F0EC80C8
:102BE00081EA03051CEA111444EAD57418BF1CEAF3
:102BF000131500F0C780A4EB05044FF0004545EA2B
:102C0000C12145EAC32341EA505143EA525304F13A
:102C10007F74994204F500344FEAC0204FEAC22283
:102C200008BF904200F09C804FEA13650FF24016F7
:102C3000765D4FEA134506FB05F7C7F1807706FB83
:102C400007F74FEAD737A7FB03687642C8F5803805
:102C5000A7FB06CE38BFA8F1010807FB08E64FF036
:102C6000000EA6FB028CE6FB03CEDCF1000CCEF1DD
:102C7000004E38BFAEF1010EA6FB0C584FF0000716
:102C80004FF00005E6FB0E87A1FB08C6A0FB07CEB0
:102C900016EB0E0645F10005E1FB076515F1E04E68
:102CA0007EBFA4F580345FEA46066D4116F18007C9
:102CB00045F100054FEA17274FEA066647EA056720
:102CC000A6F1DE46B6F1805F4FEA15251FD93846DA
:102CD00024F0010C05EBC471BCF1FE6F01EB0C118B
:102CE00002D8F0BCBDE8008124425CBF01F5801E23
:102CF0009EEAC47F02D4F0BCBDE80081244238D4EF
:102D0000F0BCA1F1C041BDE8004100F02DBA4FEA8E
:102D1000D22242EA43524FEAD323A7FB02864FEA6C
:102D2000D02040EA415007FB03661EEA0E0F4FEA2F
:102D3000D12105FB026658BFA6EB0056B6EB005644
:102D40004FEA520E4EEAC37E18EB0E0E56EB530EB0
:102D5000BDD518EB02085E417F1C55F10005B6E7B2
:102D60004FF480154FF000074FF000064FF00008B9
:102D7000ADE7F0BC4FF0000001F1C04101F00041AF
:102D8000BDE8008111EA0C1F0CEA131500D00CE01D
:102D900013EA0C1F00F025804FF00000F0BC81EA20
:102DA000030101F00041BDE80081F0BCBDE8004135
:102DB00081EA030100F0D8B9F0BCBDE8004170B56C
:102DC00000F084F9097EFC3E00F007B881EA0301B7
:102DD0004FF0000001F00041704781EA030100F06C
:102DE000C3B9F0BCBDE800414FF000002149704775
:102DF000FFFDFBF9F7F5F4F2F0EEEDEBE9E8E6E4C0
:102E0000E3E1E0DEDDDBDAD8D7D5D4D3D1D0CFCD46
:102E1000CCCBCAC8C7C6C5C4C2C1C0BFBEBDBCBB7F
:102E2000BAB9B8B7B6B5B4B3B2B1B0AFAEADACAB7A
:102E3000AAA9A8A8A7A6A5A4A3A3A2A1A09F9F9E54
:102E40009D9C9C9B9A999998979796959594939306
:102E5000929191908F8F8E8E8D8C8C8B8B8A89899D
:102E60008888878786858584848383828281818020
:102E70000000FF070000F87F4FEA1153A3F58063BD
:102E8000D3F11E03A8BFD3F1200C08DB4FF00042A2
:102E900042EAC12252EA505232FA03F07047094224
:102EA0000BD4102BC4BF0020704703F5787CBCF115
:102EB000FF3F05D04FF0FF3070474FF000007047E4
:102EC00070B500F003F900BF4992248000207047DC
:102ED000F0E710F0004248BF4042B0FA80F310FA29
:102EE00003F10AD0C3F11D0303F580634FEA41509B
:102EF00002EB035202EBD12170474FF00000704704
:102F000051EA030C17D41CF5801F58BFBCF5801F75
:102F100000F10680994218BF704708BF9042704781
:102F200007D711F5801F58BF13F5801F19D4994298
:102F30007047894270471CF5801F08D5BCF5801F7B
:102F4000F7D58B4218BF704708BF824270474FF4D5
:102F5000001C1CEB410F38BF1CEB430F01D28B420E
:102F6000704770B500F0B2F8922449004FF000515C
:102F70004FF08053FFF71CBEDFF848C170B51CEA64
:102F8000111E1EBF1CEA13159EEA0C0F95EA0C0FCA
:102F900000F06F8081EA030423EA4C134EEAD47EEA
:102FA00021EA4C1141F4801143F48013AE44A1FB9B
:102FB000024CA0FB0365AEF17F7E361955EB0C0584
:102FC000A1FB034C4CF10003A0FB021C16EB0C060A
:102FD000654153F10003094218BF46F0010613F49E
:102FE000007F0BD14FEA03314FEA0530340341EA49
:102FF000155140EA16506FF003020AE04FEAC32170
:103000004FEAC520F40241EA555140EA56506FF0AC
:10301000020202EB2E4201EB025585EACE710AD084
:103020005FEA440C18BF24F0004450F1000041F165
:10303000000120EAD47040F2FE7C624500D270BDEF
:10304000A84214BF4FF080444FF04044002E08BF08
:103050000024BEF1806FA8BFA1F1C041BDE870405F
:1030600080F282804FF0000001F1C04101F0004188
:1030700070479EEA0C0F0CEA131518BF95EA0C0F67
:1030800006D04FF0000081EA030E0EF0004170BD43
:1030900000F01CF88900013E00F007B800F009B804
:1030A0004FEA430C5FEA5C5C08D081EA030100F060
:1030B0005BB84FEA410C5FEA5C5CF6D14FF0000070
:1030C000014970470000FF070000F87F0EF1020E73
:1030D0002EF0030E5EF8046B364205D4012A43EB52
:1030E000030515F5001F12D8012841EB010C1CF552
:1030F000001F0CD80ED14FEAD17C15F5001F0CEB48
:103100004C0C0CF1020C08BF4CEBD37C04E04FF0EC
:10311000080C01E04FEAD37C0CEB4C0526FA05F6CF
:1031200006F00706B6F1040C06D20EEB860CBDE8DD
:1031300070404CF0010C6047DFE80CF0090B020214
:103140004FF000414FF00000A1F5002170BD19467D
:103150001046012851EB010418BFD4F5001484BFB8
:10316000002001F0004170BD0808A0F500114FEAF1
:103170003101704753EA010C17D41CF5801F58BF6A
:10318000BCF5801F00F106808B4218BF704708BF56
:103190008242704707D713F5801F58BF11F5801F73
:1031A00019D48B4270479B4270471CF5801F08D58D
:1031B000BCF5801FF7D5994218BF704708BF9042F1
:1031C00070474FF4001C1CEB430F38BF1CEB410F42
:1031D00001D2994270470FB40CBC03BCFFF7C1BECB
:1031E00091EA030F10B581F000413FF541AC83F047
:1031F000004300F009B8000010B591EA030F48BF82
:1032000083F000433FF534AC841A71EB030C07D212
:1032100012198CF0004C43EB0C03001B61EB0C010A
:10322000DFF8A4E14FEA1154A4EB135C1EEA430F4C
:1032300018BF9EEA445F00F0B08023EA6E0352425A
:1032400021EA0451C3EB6E0338BF5B1EDCF1200E94
:1032500025D322FA0CFE10EB0E0043FA0CFE41EBD4
:103260000E01CCF1200E03FA0EFE10EB0E0051F110
:103270000001CCF1200E29D412FA0EF201EB045118
:10328000BDE8104058BF7047401C1CBFB2F1004F52
:10329000704700280CBF491C20F00100704712EB5A
:1032A000020E43EB030218BF4FF0010E4EEA42023A
:1032B000ACF1200CDCF11E0E54D943FA0CFE10EBDD
:1032C0000E0051F1FF31CCF11E0ED5D50EF1010EDD
:1032D00012FA0EFE404141EB010101EB445C5FEA52
:1032E0005C5C10D910EBDE7001EB045138BFBEF10D
:1032F000004FBDE8104018BF704700280CBF491CA4
:1033000020F00100704730D24FEAD42C11F50011A3
:1033100024F400641BD0B1FA81F20B3AA41AA41E63
:10332000D2F12003914030FA03F31943904001EBAE
:10333000CC71002C01EB0451BDE81040A8BF7047D0
:1033400001F1C0414FF0000001F000417047B0FAB8
:1033500080F310FA03F100D110BDE41A173C4805C0
:10336000C90AE4E701EB045110BD491001EB045117
:10337000BDE810404FEA300002E04FF00001704716
:103380004A0008BF0042F8D0B2F5001F28BF7047BE
:1033900001F000414FF0000070479EEA445F07D003
:1033A00011EA5E0FBDE8104004BF00210020704705
:1033B000BDE8104070B5FFF789FE00BF40DFF63E64
:1033C00083F00041104670470000E0FF43004FEAE1
:1033D000D30C4FEA3C0C43401FBF40070CF1605137
:1033E00013F0FE4F70471CF0006F03D100200CF06B
:1033F000004170470CF0004343EA507010B540EABA
:10340000CC0000F00EF800BF000000924FEA00016F
:10341000FFF7AABE4FF000414FF00000A1F50021D8
:1034200070470EF1020E2EF0030E5EF8044B24429C
:1034300004D44FEA4102B2F17F4F11D84FEA400362
:10344000B3F17F4F0CD80ED14FEAD07CB2F17F4F51
:103450000CEB4C0C0CF1020C08BF4CEBD17C04E0E3
:103460004FF0080C01E04FEAD17C0CEB4C0324FA3E
:1034700003F404F00704B4F1040C06D20EEB840C40
:10348000BDE810404CF0010C6047DFE80CF0070885
:1034900002024FF00040A0F5800010BD0846420037
:1034A00018BFD2F1807288BF00F0004010BD4FF00D
:1034B0004070E1EE100A7047FF2141EAD050C0058C
:1034C00070470000F43500080000002044000000B0
:1034D000C401000838360008440000208C060000B3
:1034E000E00100081001000043000000F8FFFFFFAA
:1034F0000040404040404040404041414141414007
:1035000040404040404040404040404040404040BB
:10351000400502020202020202020202020202024A
:10352000022020202020202020202002020202024F
:1035300002029090909090901010101010101010A7
:1035400010101010101010101010101002020202B3
:1035500002028888888888880808080808080808F7
:1035600008080808080808080808080802020202F3
:10357000400000000000000000000000000000000B
:10358000000000000000000000000000000000003B
:10359000000000000000000000000000000000002B
:1035A000000000000000000000000000000000001B
:1035B000000000000000000000000000000000000B
:1035C00000000000000000000000000000000000FB
:1035D00000000000000000000000000000000000EB
:1035E00000000000000000000000000000000000DB
:1035F00000000000D0070000007A030A000000006D
:103600000000000001020304060708090000000092
:1036100000000000000000000000000000000000AA
:103620000000000000000000010203040102030486
:08363000060708090000000074
:040000050800018965
:00000001FF
